{
  "contractName": "SantaCoin",
  "abi": [
    {
      "inputs": [],
      "stateMutability": "nonpayable",
      "type": "constructor"
    },
    {
      "anonymous": false,
      "inputs": [
        {
          "indexed": true,
          "internalType": "address",
          "name": "owner",
          "type": "address"
        },
        {
          "indexed": true,
          "internalType": "address",
          "name": "spender",
          "type": "address"
        },
        {
          "indexed": false,
          "internalType": "uint256",
          "name": "value",
          "type": "uint256"
        }
      ],
      "name": "Approval",
      "type": "event"
    },
    {
      "anonymous": false,
      "inputs": [
        {
          "indexed": false,
          "internalType": "uint256",
          "name": "amountBNB",
          "type": "uint256"
        },
        {
          "indexed": false,
          "internalType": "uint256",
          "name": "amountBOG",
          "type": "uint256"
        }
      ],
      "name": "AutoLiquify",
      "type": "event"
    },
    {
      "anonymous": false,
      "inputs": [
        {
          "indexed": false,
          "internalType": "uint256",
          "name": "duration",
          "type": "uint256"
        }
      ],
      "name": "BuybackMultiplierActive",
      "type": "event"
    },
    {
      "anonymous": false,
      "inputs": [
        {
          "indexed": false,
          "internalType": "address",
          "name": "owner",
          "type": "address"
        }
      ],
      "name": "OwnershipTransferred",
      "type": "event"
    },
    {
      "anonymous": false,
      "inputs": [
        {
          "indexed": true,
          "internalType": "address",
          "name": "from",
          "type": "address"
        },
        {
          "indexed": true,
          "internalType": "address",
          "name": "to",
          "type": "address"
        },
        {
          "indexed": false,
          "internalType": "uint256",
          "name": "value",
          "type": "uint256"
        }
      ],
      "name": "Transfer",
      "type": "event"
    },
    {
      "inputs": [],
      "name": "MASK",
      "outputs": [
        {
          "internalType": "uint256",
          "name": "",
          "type": "uint256"
        }
      ],
      "stateMutability": "view",
      "type": "function",
      "constant": true
    },
    {
      "inputs": [],
      "name": "WBNB",
      "outputs": [
        {
          "internalType": "address",
          "name": "",
          "type": "address"
        }
      ],
      "stateMutability": "view",
      "type": "function",
      "constant": true
    },
    {
      "inputs": [],
      "name": "_maxTxAmount",
      "outputs": [
        {
          "internalType": "uint256",
          "name": "",
          "type": "uint256"
        }
      ],
      "stateMutability": "view",
      "type": "function",
      "constant": true
    },
    {
      "inputs": [
        {
          "internalType": "address",
          "name": "adr",
          "type": "address"
        }
      ],
      "name": "authorize",
      "outputs": [],
      "stateMutability": "nonpayable",
      "type": "function"
    },
    {
      "inputs": [],
      "name": "autoBuybackEnabled",
      "outputs": [
        {
          "internalType": "bool",
          "name": "",
          "type": "bool"
        }
      ],
      "stateMutability": "view",
      "type": "function",
      "constant": true
    },
    {
      "inputs": [],
      "name": "autoLiquidityReceiver",
      "outputs": [
        {
          "internalType": "address",
          "name": "",
          "type": "address"
        }
      ],
      "stateMutability": "view",
      "type": "function",
      "constant": true
    },
    {
      "inputs": [],
      "name": "distributorAddress",
      "outputs": [
        {
          "internalType": "address",
          "name": "",
          "type": "address"
        }
      ],
      "stateMutability": "view",
      "type": "function",
      "constant": true
    },
    {
      "inputs": [
        {
          "internalType": "address",
          "name": "adr",
          "type": "address"
        }
      ],
      "name": "isAuthorized",
      "outputs": [
        {
          "internalType": "bool",
          "name": "",
          "type": "bool"
        }
      ],
      "stateMutability": "view",
      "type": "function",
      "constant": true
    },
    {
      "inputs": [
        {
          "internalType": "address",
          "name": "account",
          "type": "address"
        }
      ],
      "name": "isOwner",
      "outputs": [
        {
          "internalType": "bool",
          "name": "",
          "type": "bool"
        }
      ],
      "stateMutability": "view",
      "type": "function",
      "constant": true
    },
    {
      "inputs": [],
      "name": "launchedAt",
      "outputs": [
        {
          "internalType": "uint256",
          "name": "",
          "type": "uint256"
        }
      ],
      "stateMutability": "view",
      "type": "function",
      "constant": true
    },
    {
      "inputs": [],
      "name": "launchedAtTimestamp",
      "outputs": [
        {
          "internalType": "uint256",
          "name": "",
          "type": "uint256"
        }
      ],
      "stateMutability": "view",
      "type": "function",
      "constant": true
    },
    {
      "inputs": [],
      "name": "marketingFeeReceiver",
      "outputs": [
        {
          "internalType": "address",
          "name": "",
          "type": "address"
        }
      ],
      "stateMutability": "view",
      "type": "function",
      "constant": true
    },
    {
      "inputs": [],
      "name": "pair",
      "outputs": [
        {
          "internalType": "address",
          "name": "",
          "type": "address"
        }
      ],
      "stateMutability": "view",
      "type": "function",
      "constant": true
    },
    {
      "inputs": [],
      "name": "router",
      "outputs": [
        {
          "internalType": "contract IDEXRouter",
          "name": "",
          "type": "address"
        }
      ],
      "stateMutability": "view",
      "type": "function",
      "constant": true
    },
    {
      "inputs": [],
      "name": "swapEnabled",
      "outputs": [
        {
          "internalType": "bool",
          "name": "",
          "type": "bool"
        }
      ],
      "stateMutability": "view",
      "type": "function",
      "constant": true
    },
    {
      "inputs": [],
      "name": "swapThreshold",
      "outputs": [
        {
          "internalType": "uint256",
          "name": "",
          "type": "uint256"
        }
      ],
      "stateMutability": "view",
      "type": "function",
      "constant": true
    },
    {
      "inputs": [
        {
          "internalType": "address payable",
          "name": "adr",
          "type": "address"
        }
      ],
      "name": "transferOwnership",
      "outputs": [],
      "stateMutability": "nonpayable",
      "type": "function"
    },
    {
      "inputs": [
        {
          "internalType": "address",
          "name": "adr",
          "type": "address"
        }
      ],
      "name": "unauthorize",
      "outputs": [],
      "stateMutability": "nonpayable",
      "type": "function"
    },
    {
      "stateMutability": "payable",
      "type": "receive",
      "payable": true
    },
    {
      "inputs": [],
      "name": "totalSupply",
      "outputs": [
        {
          "internalType": "uint256",
          "name": "",
          "type": "uint256"
        }
      ],
      "stateMutability": "view",
      "type": "function",
      "constant": true
    },
    {
      "inputs": [],
      "name": "decimals",
      "outputs": [
        {
          "internalType": "uint8",
          "name": "",
          "type": "uint8"
        }
      ],
      "stateMutability": "pure",
      "type": "function",
      "constant": true
    },
    {
      "inputs": [],
      "name": "symbol",
      "outputs": [
        {
          "internalType": "string",
          "name": "",
          "type": "string"
        }
      ],
      "stateMutability": "pure",
      "type": "function",
      "constant": true
    },
    {
      "inputs": [],
      "name": "name",
      "outputs": [
        {
          "internalType": "string",
          "name": "",
          "type": "string"
        }
      ],
      "stateMutability": "pure",
      "type": "function",
      "constant": true
    },
    {
      "inputs": [],
      "name": "getOwner",
      "outputs": [
        {
          "internalType": "address",
          "name": "",
          "type": "address"
        }
      ],
      "stateMutability": "view",
      "type": "function",
      "constant": true
    },
    {
      "inputs": [
        {
          "internalType": "address",
          "name": "account",
          "type": "address"
        }
      ],
      "name": "balanceOf",
      "outputs": [
        {
          "internalType": "uint256",
          "name": "",
          "type": "uint256"
        }
      ],
      "stateMutability": "view",
      "type": "function",
      "constant": true
    },
    {
      "inputs": [
        {
          "internalType": "address",
          "name": "holder",
          "type": "address"
        },
        {
          "internalType": "address",
          "name": "spender",
          "type": "address"
        }
      ],
      "name": "allowance",
      "outputs": [
        {
          "internalType": "uint256",
          "name": "",
          "type": "uint256"
        }
      ],
      "stateMutability": "view",
      "type": "function",
      "constant": true
    },
    {
      "inputs": [
        {
          "internalType": "address",
          "name": "spender",
          "type": "address"
        },
        {
          "internalType": "uint256",
          "name": "amount",
          "type": "uint256"
        }
      ],
      "name": "approve",
      "outputs": [
        {
          "internalType": "bool",
          "name": "",
          "type": "bool"
        }
      ],
      "stateMutability": "nonpayable",
      "type": "function"
    },
    {
      "inputs": [
        {
          "internalType": "address",
          "name": "spender",
          "type": "address"
        }
      ],
      "name": "approveMax",
      "outputs": [
        {
          "internalType": "bool",
          "name": "",
          "type": "bool"
        }
      ],
      "stateMutability": "nonpayable",
      "type": "function"
    },
    {
      "inputs": [
        {
          "internalType": "address",
          "name": "recipient",
          "type": "address"
        },
        {
          "internalType": "uint256",
          "name": "amount",
          "type": "uint256"
        }
      ],
      "name": "transfer",
      "outputs": [
        {
          "internalType": "bool",
          "name": "",
          "type": "bool"
        }
      ],
      "stateMutability": "nonpayable",
      "type": "function"
    },
    {
      "inputs": [
        {
          "internalType": "address",
          "name": "sender",
          "type": "address"
        },
        {
          "internalType": "address",
          "name": "recipient",
          "type": "address"
        },
        {
          "internalType": "uint256",
          "name": "amount",
          "type": "uint256"
        }
      ],
      "name": "transferFrom",
      "outputs": [
        {
          "internalType": "bool",
          "name": "",
          "type": "bool"
        }
      ],
      "stateMutability": "nonpayable",
      "type": "function"
    },
    {
      "inputs": [
        {
          "internalType": "bool",
          "name": "selling",
          "type": "bool"
        }
      ],
      "name": "getTotalFee",
      "outputs": [
        {
          "internalType": "uint256",
          "name": "",
          "type": "uint256"
        }
      ],
      "stateMutability": "view",
      "type": "function",
      "constant": true
    },
    {
      "inputs": [],
      "name": "getMultipliedFee",
      "outputs": [
        {
          "internalType": "uint256",
          "name": "",
          "type": "uint256"
        }
      ],
      "stateMutability": "view",
      "type": "function",
      "constant": true
    },
    {
      "inputs": [
        {
          "internalType": "uint256",
          "name": "amount",
          "type": "uint256"
        },
        {
          "internalType": "bool",
          "name": "triggerBuybackMultiplier",
          "type": "bool"
        }
      ],
      "name": "triggerZeusBuyback",
      "outputs": [],
      "stateMutability": "nonpayable",
      "type": "function"
    },
    {
      "inputs": [],
      "name": "clearBuybackMultiplier",
      "outputs": [],
      "stateMutability": "nonpayable",
      "type": "function"
    },
    {
      "inputs": [
        {
          "internalType": "bool",
          "name": "_enabled",
          "type": "bool"
        },
        {
          "internalType": "uint256",
          "name": "_cap",
          "type": "uint256"
        },
        {
          "internalType": "uint256",
          "name": "_amount",
          "type": "uint256"
        },
        {
          "internalType": "uint256",
          "name": "_period",
          "type": "uint256"
        }
      ],
      "name": "setAutoBuybackSettings",
      "outputs": [],
      "stateMutability": "nonpayable",
      "type": "function"
    },
    {
      "inputs": [
        {
          "internalType": "uint256",
          "name": "numerator",
          "type": "uint256"
        },
        {
          "internalType": "uint256",
          "name": "denominator",
          "type": "uint256"
        },
        {
          "internalType": "uint256",
          "name": "length",
          "type": "uint256"
        }
      ],
      "name": "setBuybackMultiplierSettings",
      "outputs": [],
      "stateMutability": "nonpayable",
      "type": "function"
    },
    {
      "inputs": [],
      "name": "launch",
      "outputs": [],
      "stateMutability": "nonpayable",
      "type": "function"
    },
    {
      "inputs": [
        {
          "internalType": "uint256",
          "name": "amount",
          "type": "uint256"
        }
      ],
      "name": "setTxLimit",
      "outputs": [],
      "stateMutability": "nonpayable",
      "type": "function"
    },
    {
      "inputs": [
        {
          "internalType": "address",
          "name": "holder",
          "type": "address"
        },
        {
          "internalType": "bool",
          "name": "exempt",
          "type": "bool"
        }
      ],
      "name": "setIsDividendExempt",
      "outputs": [],
      "stateMutability": "nonpayable",
      "type": "function"
    },
    {
      "inputs": [
        {
          "internalType": "address",
          "name": "holder",
          "type": "address"
        },
        {
          "internalType": "bool",
          "name": "exempt",
          "type": "bool"
        }
      ],
      "name": "setIsFeeExempt",
      "outputs": [],
      "stateMutability": "nonpayable",
      "type": "function"
    },
    {
      "inputs": [
        {
          "internalType": "address",
          "name": "holder",
          "type": "address"
        },
        {
          "internalType": "bool",
          "name": "exempt",
          "type": "bool"
        }
      ],
      "name": "setIsTxLimitExempt",
      "outputs": [],
      "stateMutability": "nonpayable",
      "type": "function"
    },
    {
      "inputs": [
        {
          "internalType": "uint256",
          "name": "_liquidityFee",
          "type": "uint256"
        },
        {
          "internalType": "uint256",
          "name": "_buybackFee",
          "type": "uint256"
        },
        {
          "internalType": "uint256",
          "name": "_reflectionFee",
          "type": "uint256"
        },
        {
          "internalType": "uint256",
          "name": "_marketingFee",
          "type": "uint256"
        },
        {
          "internalType": "uint256",
          "name": "_feeDenominator",
          "type": "uint256"
        }
      ],
      "name": "setFees",
      "outputs": [],
      "stateMutability": "nonpayable",
      "type": "function"
    },
    {
      "inputs": [
        {
          "internalType": "address",
          "name": "_autoLiquidityReceiver",
          "type": "address"
        },
        {
          "internalType": "address",
          "name": "_marketingFeeReceiver",
          "type": "address"
        }
      ],
      "name": "setFeeReceivers",
      "outputs": [],
      "stateMutability": "nonpayable",
      "type": "function"
    },
    {
      "inputs": [
        {
          "internalType": "bool",
          "name": "_enabled",
          "type": "bool"
        },
        {
          "internalType": "uint256",
          "name": "_amount",
          "type": "uint256"
        }
      ],
      "name": "setSwapBackSettings",
      "outputs": [],
      "stateMutability": "nonpayable",
      "type": "function"
    },
    {
      "inputs": [
        {
          "internalType": "uint256",
          "name": "_target",
          "type": "uint256"
        },
        {
          "internalType": "uint256",
          "name": "_denominator",
          "type": "uint256"
        }
      ],
      "name": "setTargetLiquidity",
      "outputs": [],
      "stateMutability": "nonpayable",
      "type": "function"
    },
    {
      "inputs": [
        {
          "internalType": "uint256",
          "name": "_minPeriod",
          "type": "uint256"
        },
        {
          "internalType": "uint256",
          "name": "_minDistribution",
          "type": "uint256"
        }
      ],
      "name": "setDistributionCriteria",
      "outputs": [],
      "stateMutability": "nonpayable",
      "type": "function"
    },
    {
      "inputs": [
        {
          "internalType": "uint256",
          "name": "gas",
          "type": "uint256"
        }
      ],
      "name": "setDistributorSettings",
      "outputs": [],
      "stateMutability": "nonpayable",
      "type": "function"
    },
    {
      "inputs": [],
      "name": "getCirculatingSupply",
      "outputs": [
        {
          "internalType": "uint256",
          "name": "",
          "type": "uint256"
        }
      ],
      "stateMutability": "view",
      "type": "function",
      "constant": true
    },
    {
      "inputs": [
        {
          "internalType": "uint256",
          "name": "accuracy",
          "type": "uint256"
        }
      ],
      "name": "getLiquidityBacking",
      "outputs": [
        {
          "internalType": "uint256",
          "name": "",
          "type": "uint256"
        }
      ],
      "stateMutability": "view",
      "type": "function",
      "constant": true
    },
    {
      "inputs": [
        {
          "internalType": "uint256",
          "name": "target",
          "type": "uint256"
        },
        {
          "internalType": "uint256",
          "name": "accuracy",
          "type": "uint256"
        }
      ],
      "name": "isOverLiquified",
      "outputs": [
        {
          "internalType": "bool",
          "name": "",
          "type": "bool"
        }
      ],
      "stateMutability": "view",
      "type": "function",
      "constant": true
    }
  ],
  "bytecode": "0x608060405273e9e7cea3dedca5984780bafc599bd69add087d56600260006101000a81548173ffffffffffffffffffffffffffffffffffffffff021916908373ffffffffffffffffffffffffffffffffffffffff16021790555073bb4cdb9cbd36b01bd1cbaebf2de08d9173bc095c600360006101000a81548173ffffffffffffffffffffffffffffffffffffffff021916908373ffffffffffffffffffffffffffffffffffffffff16021790555061dead600460006101000a81548173ffffffffffffffffffffffffffffffffffffffff021916908373ffffffffffffffffffffffffffffffffffffffff1602179055506000600560006101000a81548173ffffffffffffffffffffffffffffffffffffffff021916908373ffffffffffffffffffffffffffffffffffffffff16021790555061dead600660006101000a81548173ffffffffffffffffffffffffffffffffffffffff021916908373ffffffffffffffffffffffffffffffffffffffff1602179055506009600a62000186919062000845565b66038d7ea4c680006200019a919062000896565b600755620001bb6101906007546200069360201b620021741790919060201c565b60085560c8600e5561012c600f5561032060105560646011556105786012556127106013557327f1d191adf620b78d69bb574c360fb0529fc004601560006101000a81548173ffffffffffffffffffffffffffffffffffffffff021916908373ffffffffffffffffffffffffffffffffffffffff1602179055506019601655606460175560c8601c556064601d55610708601f556000602060006101000a81548160ff0219169083151502179055506207a1206029556001602a60006101000a81548160ff0219169083151502179055506107d06007546200029e919062000926565b602b55348015620002ae57600080fd5b5033806000806101000a81548173ffffffffffffffffffffffffffffffffffffffff021916908373ffffffffffffffffffffffffffffffffffffffff16021790555060018060008373ffffffffffffffffffffffffffffffffffffffff1673ffffffffffffffffffffffffffffffffffffffff16815260200190815260200160002060006101000a81548160ff021916908315150217905550506001600b60003373ffffffffffffffffffffffffffffffffffffffff1673ffffffffffffffffffffffffffffffffffffffff16815260200190815260200160002060006101000a81548160ff0219169083151502179055506001600c60003373ffffffffffffffffffffffffffffffffffffffff1673ffffffffffffffffffffffffffffffffffffffff16815260200190815260200160002060006101000a81548160ff0219169083151502179055506001600d6000601960009054906101000a900473ffffffffffffffffffffffffffffffffffffffff1673ffffffffffffffffffffffffffffffffffffffff1673ffffffffffffffffffffffffffffffffffffffff16815260200190815260200160002060006101000a81548160ff0219169083151502179055506001600d60003073ffffffffffffffffffffffffffffffffffffffff1673ffffffffffffffffffffffffffffffffffffffff16815260200190815260200160002060006101000a81548160ff0219169083151502179055506001600d6000600460009054906101000a900473ffffffffffffffffffffffffffffffffffffffff1673ffffffffffffffffffffffffffffffffffffffff1673ffffffffffffffffffffffffffffffffffffffff16815260200190815260200160002060006101000a81548160ff0219169083151502179055506001602160003373ffffffffffffffffffffffffffffffffffffffff1673ffffffffffffffffffffffffffffffffffffffff16815260200190815260200160002060006101000a81548160ff02191690831515021790555033601460006101000a81548173ffffffffffffffffffffffffffffffffffffffff021916908373ffffffffffffffffffffffffffffffffffffffff160217905550600754600960003373ffffffffffffffffffffffffffffffffffffffff1673ffffffffffffffffffffffffffffffffffffffff168152602001908152602001600020819055503373ffffffffffffffffffffffffffffffffffffffff16600073ffffffffffffffffffffffffffffffffffffffff167fddf252ad1be2c89b69c2b068fc378daa952ba7f163c4a11628f55a4df523b3ef6007546040516200068591906200096f565b60405180910390a36200098c565b60008183620006a3919062000926565b905092915050565b7f4e487b7100000000000000000000000000000000000000000000000000000000600052601160045260246000fd5b60008160011c9050919050565b6000808291508390505b60018511156200073957808604811115620007115762000710620006ab565b5b6001851615620007215780820291505b80810290506200073185620006da565b9450620006f1565b94509492505050565b60008262000754576001905062000827565b8162000764576000905062000827565b81600181146200077d57600281146200078857620007be565b600191505062000827565b60ff8411156200079d576200079c620006ab565b5b8360020a915084821115620007b757620007b6620006ab565b5b5062000827565b5060208310610133831016604e8410600b8410161715620007f85782820a905083811115620007f257620007f1620006ab565b5b62000827565b620008078484846001620006e7565b92509050818404811115620008215762000820620006ab565b5b81810290505b9392505050565b6000819050919050565b600060ff82169050919050565b600062000852826200082e565b91506200085f8362000838565b92506200088e7fffffffffffffffffffffffffffffffffffffffffffffffffffffffffffffffff848462000742565b905092915050565b6000620008a3826200082e565b9150620008b0836200082e565b9250817fffffffffffffffffffffffffffffffffffffffffffffffffffffffffffffffff0483118215151615620008ec57620008eb620006ab565b5b828202905092915050565b7f4e487b7100000000000000000000000000000000000000000000000000000000600052601260045260246000fd5b600062000933826200082e565b915062000940836200082e565b925082620009535762000952620008f7565b5b828204905092915050565b62000969816200082e565b82525050565b60006020820190506200098660008301846200095e565b92915050565b613f14806200099c6000396000f3fe6080604052600436106102b25760003560e01c806395d89b4111610175578063d806d12f116100dc578063f1f3bca311610095578063f708a64f1161006f578063f708a64f14610abd578063f84ba65d14610ae6578063f887ea4014610b0f578063fe9fbb8014610b3a576102b9565b8063f1f3bca314610a2e578063f2fde38b14610a6b578063f5cfec0a14610a94576102b9565b8063d806d12f1461091e578063dd62ed3e14610949578063df20fd4914610986578063e91f214e146109af578063e96fada2146109da578063f0b37c0414610a05576102b9565b8063b210b06d1161012e578063b210b06d14610820578063b6a5d7de14610837578063bf56b37114610860578063c6d2577d1461088b578063ca33e64c146108b6578063d51ed1c8146108e1576102b9565b806395d89b41146107105780639d1944f51461073b578063a4b45c0014610764578063a51af4c51461078d578063a8aa1b31146107b8578063a9059cbb146107e3576102b9565b80632d48e89611610219578063658d4b7f116101d2578063658d4b7f146105fe5780636ddd17131461062757806370a08231146106525780637d1db4a51461068f578063893d20e8146106ba5780638dd95002146106e5576102b9565b80632d48e896146104dc5780632f54bf6e14610505578063313ce567146105425780633bb8a8d41461056d578063571ac8b0146105985780635c85974f146105d5576102b9565b80631161ae391161026b5780631161ae39146103ba57806318160ddd146103f7578063201e7991146104225780632375ce401461044b57806323b872dd146104745780632b112e49146104b1576102b9565b806301339c21146102be5780630445b667146102d5578063048c7baf1461030057806304a66b481461032957806306fdde0314610352578063095ea7b31461037d576102b9565b366102b957005b600080fd5b3480156102ca57600080fd5b506102d3610b77565b005b3480156102e157600080fd5b506102ea610c14565b6040516102f791906131a2565b60405180910390f35b34801561030c57600080fd5b5061032760048036038101906103229190613226565b610c1a565b005b34801561033557600080fd5b50610350600480360381019061034b919061328d565b610ca6565b005b34801561035e57600080fd5b50610367610d71565b60405161037491906133a1565b60405180910390f35b34801561038957600080fd5b506103a4600480360381019061039f9190613421565b610dae565b6040516103b19190613470565b60405180910390f35b3480156103c657600080fd5b506103e160048036038101906103dc919061348b565b610ea0565b6040516103ee9190613470565b60405180910390f35b34801561040357600080fd5b5061040c610eb5565b60405161041991906131a2565b60405180910390f35b34801561042e57600080fd5b506104496004803603810190610444919061348b565b610ebf565b005b34801561045757600080fd5b50610472600480360381019061046d91906134cb565b610f19565b005b34801561048057600080fd5b5061049b6004803603810190610496919061351e565b610f9f565b6040516104a89190613470565b60405180910390f35b3480156104bd57600080fd5b506104c6611181565b6040516104d391906131a2565b60405180910390f35b3480156104e857600080fd5b5061050360048036038101906104fe919061348b565b611203565b005b34801561051157600080fd5b5061052c60048036038101906105279190613571565b6112de565b6040516105399190613470565b60405180910390f35b34801561054e57600080fd5b50610557611337565b60405161056491906135ba565b60405180910390f35b34801561057957600080fd5b50610582611340565b60405161058f9190613470565b60405180910390f35b3480156105a457600080fd5b506105bf60048036038101906105ba9190613571565b611353565b6040516105cc9190613470565b60405180910390f35b3480156105e157600080fd5b506105fc60048036038101906105f791906135d5565b611368565b005b34801561060a57600080fd5b5061062560048036038101906106209190613602565b6113d6565b005b34801561063357600080fd5b5061063c611479565b6040516106499190613470565b60405180910390f35b34801561065e57600080fd5b5061067960048036038101906106749190613571565b61148c565b60405161068691906131a2565b60405180910390f35b34801561069b57600080fd5b506106a46114d5565b6040516106b191906131a2565b60405180910390f35b3480156106c657600080fd5b506106cf6114db565b6040516106dc9190613651565b60405180910390f35b3480156106f157600080fd5b506106fa611504565b6040516107079190613651565b60405180910390f35b34801561071c57600080fd5b5061072561152a565b60405161073291906133a1565b60405180910390f35b34801561074757600080fd5b50610762600480360381019061075d91906135d5565b611567565b005b34801561077057600080fd5b5061078b6004803603810190610786919061366c565b6115c8565b005b34801561079957600080fd5b506107a2611696565b6040516107af9190613651565b60405180910390f35b3480156107c457600080fd5b506107cd6116bc565b6040516107da9190613651565b60405180910390f35b3480156107ef57600080fd5b5061080a60048036038101906108059190613421565b6116e2565b6040516108179190613470565b60405180910390f35b34801561082c57600080fd5b506108356116f7565b005b34801561084357600080fd5b5061085e60048036038101906108599190613571565b611749565b005b34801561086c57600080fd5b506108756117eb565b60405161088291906131a2565b60405180910390f35b34801561089757600080fd5b506108a06117f1565b6040516108ad91906131a2565b60405180910390f35b3480156108c257600080fd5b506108cb6117f7565b6040516108d89190613651565b60405180910390f35b3480156108ed57600080fd5b50610908600480360381019061090391906135d5565b61181d565b60405161091591906131a2565b60405180910390f35b34801561092a57600080fd5b5061093361188f565b60405161094091906131a2565b60405180910390f35b34801561095557600080fd5b50610970600480360381019061096b919061366c565b6119b6565b60405161097d91906131a2565b60405180910390f35b34801561099257600080fd5b506109ad60048036038101906109a891906136ac565b611a3d565b005b3480156109bb57600080fd5b506109c4611aaa565b6040516109d191906131a2565b60405180910390f35b3480156109e657600080fd5b506109ef611ac0565b6040516109fc9190613651565b60405180910390f35b348015610a1157600080fd5b50610a2c6004803603810190610a279190613571565b611ae6565b005b348015610a3a57600080fd5b50610a556004803603810190610a5091906136ec565b611b89565b604051610a6291906131a2565b60405180910390f35b348015610a7757600080fd5b50610a926004803603810190610a8d9190613757565b611bdd565b005b348015610aa057600080fd5b50610abb6004803603810190610ab69190613784565b611cf6565b005b348015610ac957600080fd5b50610ae46004803603810190610adf9190613602565b611db5565b005b348015610af257600080fd5b50610b0d6004803603810190610b089190613602565b612055565b005b348015610b1b57600080fd5b50610b246120f8565b604051610b319190613823565b60405180910390f35b348015610b4657600080fd5b50610b616004803603810190610b5c9190613571565b61211e565b604051610b6e9190613470565b60405180910390f35b610b803361211e565b610bbf576040517f08c379a0000000000000000000000000000000000000000000000000000000008152600401610bb69061388a565b60405180910390fd5b6000601a5414610c04576040517f08c379a0000000000000000000000000000000000000000000000000000000008152600401610bfb906138f6565b60405180910390fd5b43601a8190555042601b81905550565b602b5481565b610c233361211e565b610c62576040517f08c379a0000000000000000000000000000000000000000000000000000000008152600401610c599061388a565b60405180910390fd5b83602060006101000a81548160ff02191690831515021790555082602281905550600060238190555081602481905550806025819055504360268190555050505050565b610caf3361211e565b610cee576040517f08c379a0000000000000000000000000000000000000000000000000000000008152600401610ce59061388a565b60405180910390fd5b84600e8190555083600f819055508260108190555081601181905550610d4182610d3385610d25888a61218a90919063ffffffff16565b61218a90919063ffffffff16565b61218a90919063ffffffff16565b601281905550806013819055506004601354610d5d9190613974565b60125410610d6a57600080fd5b5050505050565b60606040518060400160405280600a81526020017f53616e746120436f696e00000000000000000000000000000000000000000000815250905090565b600081600a60003373ffffffffffffffffffffffffffffffffffffffff1673ffffffffffffffffffffffffffffffffffffffff16815260200190815260200160002060008573ffffffffffffffffffffffffffffffffffffffff1673ffffffffffffffffffffffffffffffffffffffff168152602001908152602001600020819055508273ffffffffffffffffffffffffffffffffffffffff163373ffffffffffffffffffffffffffffffffffffffff167f8c5be1e5ebec7d5bd14f71427d1e84f3dd0314c0f7b2291e5b200ac8c7c3b92584604051610e8e91906131a2565b60405180910390a36001905092915050565b600082610eac8361181d565b11905092915050565b6000600754905090565b610ec83361211e565b610f07576040517f08c379a0000000000000000000000000000000000000000000000000000000008152600401610efe9061388a565b60405180910390fd5b81601681905550806017819055505050565b610f223361211e565b610f61576040517f08c379a0000000000000000000000000000000000000000000000000000000008152600401610f589061388a565b60405180910390fd5b60028284610f6f9190613974565b11158015610f7c57508183115b610f8557600080fd5b82601c8190555081601d8190555080601f81905550505050565b6000600754600a60008673ffffffffffffffffffffffffffffffffffffffff1673ffffffffffffffffffffffffffffffffffffffff16815260200190815260200160002060003373ffffffffffffffffffffffffffffffffffffffff1673ffffffffffffffffffffffffffffffffffffffff168152602001908152602001600020541461116d576110ec826040518060400160405280601681526020017f496e73756666696369656e7420416c6c6f77616e636500000000000000000000815250600a60008873ffffffffffffffffffffffffffffffffffffffff1673ffffffffffffffffffffffffffffffffffffffff16815260200190815260200160002060003373ffffffffffffffffffffffffffffffffffffffff1673ffffffffffffffffffffffffffffffffffffffff168152602001908152602001600020546121a09092919063ffffffff16565b600a60008673ffffffffffffffffffffffffffffffffffffffff1673ffffffffffffffffffffffffffffffffffffffff16815260200190815260200160002060003373ffffffffffffffffffffffffffffffffffffffff1673ffffffffffffffffffffffffffffffffffffffff168152602001908152602001600020819055505b6111788484846121f5565b90509392505050565b60006111fe6111b1600560009054906101000a900473ffffffffffffffffffffffffffffffffffffffff1661148c565b6111f06111df600460009054906101000a900473ffffffffffffffffffffffffffffffffffffffff1661148c565b60075461244a90919063ffffffff16565b61244a90919063ffffffff16565b905090565b61120c3361211e565b61124b576040517f08c379a00000000000000000000000000000000000000000000000000000000081526004016112429061388a565b60405180910390fd5b602760009054906101000a900473ffffffffffffffffffffffffffffffffffffffff1673ffffffffffffffffffffffffffffffffffffffff16632d48e89683836040518363ffffffff1660e01b81526004016112a89291906139a5565b600060405180830381600087803b1580156112c257600080fd5b505af11580156112d6573d6000803e3d6000fd5b505050505050565b60008060009054906101000a900473ffffffffffffffffffffffffffffffffffffffff1673ffffffffffffffffffffffffffffffffffffffff168273ffffffffffffffffffffffffffffffffffffffff16149050919050565b60006009905090565b602060009054906101000a900460ff1681565b600061136182600754610dae565b9050919050565b6113713361211e565b6113b0576040517f08c379a00000000000000000000000000000000000000000000000000000000081526004016113a79061388a565b60405180910390fd5b6103e86007546113c09190613974565b8110156113cc57600080fd5b8060088190555050565b6113df3361211e565b61141e576040517f08c379a00000000000000000000000000000000000000000000000000000000081526004016114159061388a565b60405180910390fd5b80600b60008473ffffffffffffffffffffffffffffffffffffffff1673ffffffffffffffffffffffffffffffffffffffff16815260200190815260200160002060006101000a81548160ff0219169083151502179055505050565b602a60009054906101000a900460ff1681565b6000600960008373ffffffffffffffffffffffffffffffffffffffff1673ffffffffffffffffffffffffffffffffffffffff168152602001908152602001600020549050919050565b60085481565b60008060009054906101000a900473ffffffffffffffffffffffffffffffffffffffff16905090565b600360009054906101000a900473ffffffffffffffffffffffffffffffffffffffff1681565b60606040518060400160405280600581526020017f53616e7461000000000000000000000000000000000000000000000000000000815250905090565b6115703361211e565b6115af576040517f08c379a00000000000000000000000000000000000000000000000000000000081526004016115a69061388a565b60405180910390fd5b620b71b081106115be57600080fd5b8060298190555050565b6115d13361211e565b611610576040517f08c379a00000000000000000000000000000000000000000000000000000000081526004016116079061388a565b60405180910390fd5b81601460006101000a81548173ffffffffffffffffffffffffffffffffffffffff021916908373ffffffffffffffffffffffffffffffffffffffff16021790555080601560006101000a81548173ffffffffffffffffffffffffffffffffffffffff021916908373ffffffffffffffffffffffffffffffffffffffff1602179055505050565b602860009054906101000a900473ffffffffffffffffffffffffffffffffffffffff1681565b601960009054906101000a900473ffffffffffffffffffffffffffffffffffffffff1681565b60006116ef3384846121f5565b905092915050565b6117003361211e565b61173f576040517f08c379a00000000000000000000000000000000000000000000000000000000081526004016117369061388a565b60405180910390fd5b6000601e81905550565b611752336112de565b611791576040517f08c379a000000000000000000000000000000000000000000000000000000000815260040161178890613a1a565b60405180910390fd5b60018060008373ffffffffffffffffffffffffffffffffffffffff1673ffffffffffffffffffffffffffffffffffffffff16815260200190815260200160002060006101000a81548160ff02191690831515021790555050565b601a5481565b601b5481565b601460009054906101000a900473ffffffffffffffffffffffffffffffffffffffff1681565b600061188861182a611181565b61187a61186b600261185d601960009054906101000a900473ffffffffffffffffffffffffffffffffffffffff1661148c565b61246090919063ffffffff16565b8561246090919063ffffffff16565b61217490919063ffffffff16565b9050919050565b60004262015180601b546118a39190613a3a565b11156118db576118d46013546118c661465060125461246090919063ffffffff16565b61217490919063ffffffff16565b90506119b3565b426118f3601f54601e5461218a90919063ffffffff16565b11156119ad57600061192442611916601f54601e5461218a90919063ffffffff16565b61244a90919063ffffffff16565b90506000611967601254611959601d5461194b601c5460125461246090919063ffffffff16565b61217490919063ffffffff16565b61244a90919063ffffffff16565b90506119a4611993601f54611985858561246090919063ffffffff16565b61217490919063ffffffff16565b60125461218a90919063ffffffff16565b925050506119b3565b60125490505b90565b6000600a60008473ffffffffffffffffffffffffffffffffffffffff1673ffffffffffffffffffffffffffffffffffffffff16815260200190815260200160002060008373ffffffffffffffffffffffffffffffffffffffff1673ffffffffffffffffffffffffffffffffffffffff16815260200190815260200160002054905092915050565b611a463361211e565b611a85576040517f08c379a0000000000000000000000000000000000000000000000000000000008152600401611a7c9061388a565b60405180910390fd5b81602a60006101000a81548160ff02191690831515021790555080602b819055505050565b6fffffffffffffffffffffffffffffffff801681565b601560009054906101000a900473ffffffffffffffffffffffffffffffffffffffff1681565b611aef336112de565b611b2e576040517f08c379a0000000000000000000000000000000000000000000000000000000008152600401611b2590613a1a565b60405180910390fd5b6000600160008373ffffffffffffffffffffffffffffffffffffffff1673ffffffffffffffffffffffffffffffffffffffff16815260200190815260200160002060006101000a81548160ff02191690831515021790555050565b6000436001601a54611b9b9190613a3a565b10611bbd57611bb6600160135461244a90919063ffffffff16565b9050611bd8565b8115611bd257611bcb61188f565b9050611bd8565b60125490505b919050565b611be6336112de565b611c25576040517f08c379a0000000000000000000000000000000000000000000000000000000008152600401611c1c90613a1a565b60405180910390fd5b806000806101000a81548173ffffffffffffffffffffffffffffffffffffffff021916908373ffffffffffffffffffffffffffffffffffffffff16021790555060018060008373ffffffffffffffffffffffffffffffffffffffff1673ffffffffffffffffffffffffffffffffffffffff16815260200190815260200160002060006101000a81548160ff0219169083151502179055507f04dba622d284ed0014ee4b9a6a68386be1a4c08a4913ae272de89199cc68616381604051611ceb9190613ab1565b60405180910390a150565b611cff3361211e565b611d3e576040517f08c379a0000000000000000000000000000000000000000000000000000000008152600401611d359061388a565b60405180910390fd5b611d6a82600460009054906101000a900473ffffffffffffffffffffffffffffffffffffffff16612476565b8015611db15742601e819055507f39d2389ec5c1fa77b2c0d374bc61b6d7bd97ccba280fcdeb4e9c7644898d7c3a601f54604051611da891906131a2565b60405180910390a15b5050565b611dbe3361211e565b611dfd576040517f08c379a0000000000000000000000000000000000000000000000000000000008152600401611df49061388a565b60405180910390fd5b3073ffffffffffffffffffffffffffffffffffffffff168273ffffffffffffffffffffffffffffffffffffffff1614158015611e875750601960009054906101000a900473ffffffffffffffffffffffffffffffffffffffff1673ffffffffffffffffffffffffffffffffffffffff168273ffffffffffffffffffffffffffffffffffffffff1614155b611e9057600080fd5b80600d60008473ffffffffffffffffffffffffffffffffffffffff1673ffffffffffffffffffffffffffffffffffffffff16815260200190815260200160002060006101000a81548160ff0219169083151502179055508015611f8257602760009054906101000a900473ffffffffffffffffffffffffffffffffffffffff1673ffffffffffffffffffffffffffffffffffffffff166314b6ca968360006040518363ffffffff1660e01b8152600401611f4b929190613b07565b600060405180830381600087803b158015611f6557600080fd5b505af1158015611f79573d6000803e3d6000fd5b50505050612051565b602760009054906101000a900473ffffffffffffffffffffffffffffffffffffffff1673ffffffffffffffffffffffffffffffffffffffff166314b6ca9683600960008673ffffffffffffffffffffffffffffffffffffffff1673ffffffffffffffffffffffffffffffffffffffff168152602001908152602001600020546040518363ffffffff1660e01b815260040161201e929190613b30565b600060405180830381600087803b15801561203857600080fd5b505af115801561204c573d6000803e3d6000fd5b505050505b5050565b61205e3361211e565b61209d576040517f08c379a00000000000000000000000000000000000000000000000000000000081526004016120949061388a565b60405180910390fd5b80600c60008473ffffffffffffffffffffffffffffffffffffffff1673ffffffffffffffffffffffffffffffffffffffff16815260200190815260200160002060006101000a81548160ff0219169083151502179055505050565b601860009054906101000a900473ffffffffffffffffffffffffffffffffffffffff1681565b6000600160008373ffffffffffffffffffffffffffffffffffffffff1673ffffffffffffffffffffffffffffffffffffffff16815260200190815260200160002060009054906101000a900460ff169050919050565b600081836121829190613974565b905092915050565b600081836121989190613a3a565b905092915050565b60008383111582906121e8576040517f08c379a00000000000000000000000000000000000000000000000000000000081526004016121df91906133a1565b60405180910390fd5b5082840390509392505050565b6000602c60009054906101000a900460ff161561221e57612217848484612654565b9050612443565b61222884836127c2565b61223061285f565b1561223e5761223d612936565b5b612246612e68565b1561225457612253612f1b565b5b6122dd826040518060400160405280601481526020017f496e73756666696369656e742042616c616e6365000000000000000000000000815250600960008873ffffffffffffffffffffffffffffffffffffffff1673ffffffffffffffffffffffffffffffffffffffff168152602001908152602001600020546121a09092919063ffffffff16565b600960008673ffffffffffffffffffffffffffffffffffffffff1673ffffffffffffffffffffffffffffffffffffffff16815260200190815260200160002081905550600061232b85612f97565b6123355782612341565b612340858585612fee565b5b905061239581600960008773ffffffffffffffffffffffffffffffffffffffff1673ffffffffffffffffffffffffffffffffffffffff1681526020019081526020016000205461218a90919063ffffffff16565b600960008673ffffffffffffffffffffffffffffffffffffffff1673ffffffffffffffffffffffffffffffffffffffff168152602001908152602001600020819055508373ffffffffffffffffffffffffffffffffffffffff168573ffffffffffffffffffffffffffffffffffffffff167fddf252ad1be2c89b69c2b068fc378daa952ba7f163c4a11628f55a4df523b3ef8360405161243591906131a2565b60405180910390a360019150505b9392505050565b600081836124589190613b59565b905092915050565b6000818361246e9190613b8d565b905092915050565b6001602c60006101000a81548160ff0219169083151502179055506000600267ffffffffffffffff8111156124ae576124ad613be7565b5b6040519080825280602002602001820160405280156124dc5781602001602082028036833780820191505090505b509050600360009054906101000a900473ffffffffffffffffffffffffffffffffffffffff168160008151811061251657612515613c16565b5b602002602001019073ffffffffffffffffffffffffffffffffffffffff16908173ffffffffffffffffffffffffffffffffffffffff1681525050308160018151811061256557612564613c16565b5b602002602001019073ffffffffffffffffffffffffffffffffffffffff16908173ffffffffffffffffffffffffffffffffffffffff1681525050601860009054906101000a900473ffffffffffffffffffffffffffffffffffffffff1673ffffffffffffffffffffffffffffffffffffffff1663b6f9de958460008486426040518663ffffffff1660e01b81526004016126029493929190613d03565b6000604051808303818588803b15801561261b57600080fd5b505af115801561262f573d6000803e3d6000fd5b5050505050506000602c60006101000a81548160ff0219169083151502179055505050565b60006126df826040518060400160405280601481526020017f496e73756666696369656e742042616c616e6365000000000000000000000000815250600960008873ffffffffffffffffffffffffffffffffffffffff1673ffffffffffffffffffffffffffffffffffffffff168152602001908152602001600020546121a09092919063ffffffff16565b600960008673ffffffffffffffffffffffffffffffffffffffff1673ffffffffffffffffffffffffffffffffffffffff1681526020019081526020016000208190555061277482600960008673ffffffffffffffffffffffffffffffffffffffff1673ffffffffffffffffffffffffffffffffffffffff1681526020019081526020016000205461218a90919063ffffffff16565b600960008573ffffffffffffffffffffffffffffffffffffffff1673ffffffffffffffffffffffffffffffffffffffff16815260200190815260200160002081905550600190509392505050565b6008548111158061281c5750600c60008373ffffffffffffffffffffffffffffffffffffffff1673ffffffffffffffffffffffffffffffffffffffff16815260200190815260200160002060009054906101000a900460ff165b61285b576040517f08c379a000000000000000000000000000000000000000000000000000000000815260040161285290613d9b565b60405180910390fd5b5050565b6000601960009054906101000a900473ffffffffffffffffffffffffffffffffffffffff1673ffffffffffffffffffffffffffffffffffffffff163373ffffffffffffffffffffffffffffffffffffffff16141580156128cc5750602c60009054906101000a900460ff16155b80156128e45750602a60009054906101000a900460ff165b80156129315750602b54600960003073ffffffffffffffffffffffffffffffffffffffff1673ffffffffffffffffffffffffffffffffffffffff1681526020019081526020016000205410155b905090565b6001602c60006101000a81548160ff0219169083151502179055506000612961601654601754610ea0565b61296d57600e54612970565b60005b905060006129b060026129a260125461299486602b5461246090919063ffffffff16565b61217490919063ffffffff16565b61217490919063ffffffff16565b905060006129c982602b5461244a90919063ffffffff16565b90506000600267ffffffffffffffff8111156129e8576129e7613be7565b5b604051908082528060200260200182016040528015612a165781602001602082028036833780820191505090505b5090503081600081518110612a2e57612a2d613c16565b5b602002602001019073ffffffffffffffffffffffffffffffffffffffff16908173ffffffffffffffffffffffffffffffffffffffff1681525050600360009054906101000a900473ffffffffffffffffffffffffffffffffffffffff1681600181518110612a9f57612a9e613c16565b5b602002602001019073ffffffffffffffffffffffffffffffffffffffff16908173ffffffffffffffffffffffffffffffffffffffff16815250506000479050601860009054906101000a900473ffffffffffffffffffffffffffffffffffffffff1673ffffffffffffffffffffffffffffffffffffffff1663791ac9478460008530426040518663ffffffff1660e01b8152600401612b42959493929190613dbb565b600060405180830381600087803b158015612b5c57600080fd5b505af1158015612b70573d6000803e3d6000fd5b505050506000612b89824761244a90919063ffffffff16565b90506000612bb5612ba460028961217490919063ffffffff16565b60125461244a90919063ffffffff16565b90506000612bf16002612be384612bd58c8861246090919063ffffffff16565b61217490919063ffffffff16565b61217490919063ffffffff16565b90506000612c1c83612c0e6010548761246090919063ffffffff16565b61217490919063ffffffff16565b90506000612c4784612c396011548861246090919063ffffffff16565b61217490919063ffffffff16565b9050602760009054906101000a900473ffffffffffffffffffffffffffffffffffffffff1673ffffffffffffffffffffffffffffffffffffffff1663d0e30db0836040518263ffffffff1660e01b81526004016000604051808303818588803b158015612cb357600080fd5b505af193505050508015612cc5575060015b50601560009054906101000a900473ffffffffffffffffffffffffffffffffffffffff1673ffffffffffffffffffffffffffffffffffffffff166108fc829081150290604051600060405180830381858888f19350505050158015612d2e573d6000803e3d6000fd5b506000891115612e4157601860009054906101000a900473ffffffffffffffffffffffffffffffffffffffff1673ffffffffffffffffffffffffffffffffffffffff1663f305d71984308c600080601460009054906101000a900473ffffffffffffffffffffffffffffffffffffffff16426040518863ffffffff1660e01b8152600401612dc196959493929190613e15565b60606040518083038185885af1158015612ddf573d6000803e3d6000fd5b50505050506040513d601f19601f82011682018060405250810190612e049190613e8b565b5050507f424db2872186fa7e7afa7a5e902ed3b49a2ef19c2f5431e672462495dd6b4506838a604051612e389291906139a5565b60405180910390a15b505050505050505050506000602c60006101000a81548160ff021916908315150217905550565b6000601960009054906101000a900473ffffffffffffffffffffffffffffffffffffffff1673ffffffffffffffffffffffffffffffffffffffff163373ffffffffffffffffffffffffffffffffffffffff1614158015612ed55750602c60009054906101000a900460ff16155b8015612eed5750602060009054906101000a900460ff165b8015612f08575043602554602654612f059190613a3a565b11155b8015612f1657506024544710155b905090565b612f49602454600460009054906101000a900473ffffffffffffffffffffffffffffffffffffffff16612476565b43602681905550612f6760245460235461218a90919063ffffffff16565b6023819055506022546023541115612f95576000602060006101000a81548160ff0219169083151502179055505b565b6000600b60008373ffffffffffffffffffffffffffffffffffffffff1673ffffffffffffffffffffffffffffffffffffffff16815260200190815260200160002060009054906101000a900460ff16159050919050565b600080613070601354613062613053601960009054906101000a900473ffffffffffffffffffffffffffffffffffffffff1673ffffffffffffffffffffffffffffffffffffffff168873ffffffffffffffffffffffffffffffffffffffff1614611b89565b8661246090919063ffffffff16565b61217490919063ffffffff16565b90506130c481600960003073ffffffffffffffffffffffffffffffffffffffff1673ffffffffffffffffffffffffffffffffffffffff1681526020019081526020016000205461218a90919063ffffffff16565b600960003073ffffffffffffffffffffffffffffffffffffffff1673ffffffffffffffffffffffffffffffffffffffff168152602001908152602001600020819055503073ffffffffffffffffffffffffffffffffffffffff168573ffffffffffffffffffffffffffffffffffffffff167fddf252ad1be2c89b69c2b068fc378daa952ba7f163c4a11628f55a4df523b3ef8360405161316491906131a2565b60405180910390a361317f818461244a90919063ffffffff16565b9150509392505050565b6000819050919050565b61319c81613189565b82525050565b60006020820190506131b76000830184613193565b92915050565b600080fd5b60008115159050919050565b6131d7816131c2565b81146131e257600080fd5b50565b6000813590506131f4816131ce565b92915050565b61320381613189565b811461320e57600080fd5b50565b600081359050613220816131fa565b92915050565b600080600080608085870312156132405761323f6131bd565b5b600061324e878288016131e5565b945050602061325f87828801613211565b935050604061327087828801613211565b925050606061328187828801613211565b91505092959194509250565b600080600080600060a086880312156132a9576132a86131bd565b5b60006132b788828901613211565b95505060206132c888828901613211565b94505060406132d988828901613211565b93505060606132ea88828901613211565b92505060806132fb88828901613211565b9150509295509295909350565b600081519050919050565b600082825260208201905092915050565b60005b83811015613342578082015181840152602081019050613327565b83811115613351576000848401525b50505050565b6000601f19601f8301169050919050565b600061337382613308565b61337d8185613313565b935061338d818560208601613324565b61339681613357565b840191505092915050565b600060208201905081810360008301526133bb8184613368565b905092915050565b600073ffffffffffffffffffffffffffffffffffffffff82169050919050565b60006133ee826133c3565b9050919050565b6133fe816133e3565b811461340957600080fd5b50565b60008135905061341b816133f5565b92915050565b60008060408385031215613438576134376131bd565b5b60006134468582860161340c565b925050602061345785828601613211565b9150509250929050565b61346a816131c2565b82525050565b60006020820190506134856000830184613461565b92915050565b600080604083850312156134a2576134a16131bd565b5b60006134b085828601613211565b92505060206134c185828601613211565b9150509250929050565b6000806000606084860312156134e4576134e36131bd565b5b60006134f286828701613211565b935050602061350386828701613211565b925050604061351486828701613211565b9150509250925092565b600080600060608486031215613537576135366131bd565b5b60006135458682870161340c565b93505060206135568682870161340c565b925050604061356786828701613211565b9150509250925092565b600060208284031215613587576135866131bd565b5b60006135958482850161340c565b91505092915050565b600060ff82169050919050565b6135b48161359e565b82525050565b60006020820190506135cf60008301846135ab565b92915050565b6000602082840312156135eb576135ea6131bd565b5b60006135f984828501613211565b91505092915050565b60008060408385031215613619576136186131bd565b5b60006136278582860161340c565b9250506020613638858286016131e5565b9150509250929050565b61364b816133e3565b82525050565b60006020820190506136666000830184613642565b92915050565b60008060408385031215613683576136826131bd565b5b60006136918582860161340c565b92505060206136a28582860161340c565b9150509250929050565b600080604083850312156136c3576136c26131bd565b5b60006136d1858286016131e5565b92505060206136e285828601613211565b9150509250929050565b600060208284031215613702576137016131bd565b5b6000613710848285016131e5565b91505092915050565b6000613724826133c3565b9050919050565b61373481613719565b811461373f57600080fd5b50565b6000813590506137518161372b565b92915050565b60006020828403121561376d5761376c6131bd565b5b600061377b84828501613742565b91505092915050565b6000806040838503121561379b5761379a6131bd565b5b60006137a985828601613211565b92505060206137ba858286016131e5565b9150509250929050565b6000819050919050565b60006137e96137e46137df846133c3565b6137c4565b6133c3565b9050919050565b60006137fb826137ce565b9050919050565b600061380d826137f0565b9050919050565b61381d81613802565b82525050565b60006020820190506138386000830184613814565b92915050565b7f21415554484f52495a4544000000000000000000000000000000000000000000600082015250565b6000613874600b83613313565b915061387f8261383e565b602082019050919050565b600060208201905081810360008301526138a381613867565b9050919050565b7f416c7265616479206c61756e6368656420626f69000000000000000000000000600082015250565b60006138e0601483613313565b91506138eb826138aa565b602082019050919050565b6000602082019050818103600083015261390f816138d3565b9050919050565b7f4e487b7100000000000000000000000000000000000000000000000000000000600052601260045260246000fd5b7f4e487b7100000000000000000000000000000000000000000000000000000000600052601160045260246000fd5b600061397f82613189565b915061398a83613189565b92508261399a57613999613916565b5b828204905092915050565b60006040820190506139ba6000830185613193565b6139c76020830184613193565b9392505050565b7f214f574e45520000000000000000000000000000000000000000000000000000600082015250565b6000613a04600683613313565b9150613a0f826139ce565b602082019050919050565b60006020820190508181036000830152613a33816139f7565b9050919050565b6000613a4582613189565b9150613a5083613189565b9250827fffffffffffffffffffffffffffffffffffffffffffffffffffffffffffffffff03821115613a8557613a84613945565b5b828201905092915050565b6000613a9b826137f0565b9050919050565b613aab81613a90565b82525050565b6000602082019050613ac66000830184613aa2565b92915050565b6000819050919050565b6000613af1613aec613ae784613acc565b6137c4565b613189565b9050919050565b613b0181613ad6565b82525050565b6000604082019050613b1c6000830185613642565b613b296020830184613af8565b9392505050565b6000604082019050613b456000830185613642565b613b526020830184613193565b9392505050565b6000613b6482613189565b9150613b6f83613189565b925082821015613b8257613b81613945565b5b828203905092915050565b6000613b9882613189565b9150613ba383613189565b9250817fffffffffffffffffffffffffffffffffffffffffffffffffffffffffffffffff0483118215151615613bdc57613bdb613945565b5b828202905092915050565b7f4e487b7100000000000000000000000000000000000000000000000000000000600052604160045260246000fd5b7f4e487b7100000000000000000000000000000000000000000000000000000000600052603260045260246000fd5b600081519050919050565b600082825260208201905092915050565b6000819050602082019050919050565b613c7a816133e3565b82525050565b6000613c8c8383613c71565b60208301905092915050565b6000602082019050919050565b6000613cb082613c45565b613cba8185613c50565b9350613cc583613c61565b8060005b83811015613cf6578151613cdd8882613c80565b9750613ce883613c98565b925050600181019050613cc9565b5085935050505092915050565b6000608082019050613d186000830187613af8565b8181036020830152613d2a8186613ca5565b9050613d396040830185613642565b613d466060830184613193565b95945050505050565b7f5458204c696d6974204578636565646564000000000000000000000000000000600082015250565b6000613d85601183613313565b9150613d9082613d4f565b602082019050919050565b60006020820190508181036000830152613db481613d78565b9050919050565b600060a082019050613dd06000830188613193565b613ddd6020830187613af8565b8181036040830152613def8186613ca5565b9050613dfe6060830185613642565b613e0b6080830184613193565b9695505050505050565b600060c082019050613e2a6000830189613642565b613e376020830188613193565b613e446040830187613af8565b613e516060830186613af8565b613e5e6080830185613642565b613e6b60a0830184613193565b979650505050505050565b600081519050613e85816131fa565b92915050565b600080600060608486031215613ea457613ea36131bd565b5b6000613eb286828701613e76565b9350506020613ec386828701613e76565b9250506040613ed486828701613e76565b915050925092509256fea2646970667358221220d20b4fdf8afe3f0fb641e4f8553ae51fa40f20a0ddb68eaa7aafd6a61367edbd64736f6c634300080d0033",
  "immutableReferences": {},
  "source": "// SPDX-License-Identifier: MIT\n\npragma solidity ^0.8.0;\n\n/**\n * SAFEMATH LIBRARY\n */\nlibrary SafeMath {\n    \n    function tryAdd(uint256 a, uint256 b) internal pure returns (bool, uint256) {\n        unchecked {\n            uint256 c = a + b;\n            if (c < a) return (false, 0);\n            return (true, c);\n        }\n    }\n\n    function trySub(uint256 a, uint256 b) internal pure returns (bool, uint256) {\n        unchecked {\n            if (b > a) return (false, 0);\n            return (true, a - b);\n        }\n    }\n\n    function tryMul(uint256 a, uint256 b) internal pure returns (bool, uint256) {\n        unchecked {\n            // Gas optimization: this is cheaper than requiring 'a' not being zero, but the\n            // benefit is lost if 'b' is also tested.\n            // See: https://github.com/OpenZeppelin/openzeppelin-contracts/pull/522\n            if (a == 0) return (true, 0);\n            uint256 c = a * b;\n            if (c / a != b) return (false, 0);\n            return (true, c);\n        }\n    }\n\n    function tryDiv(uint256 a, uint256 b) internal pure returns (bool, uint256) {\n        unchecked {\n            if (b == 0) return (false, 0);\n            return (true, a / b);\n        }\n    }\n\n    function tryMod(uint256 a, uint256 b) internal pure returns (bool, uint256) {\n        unchecked {\n            if (b == 0) return (false, 0);\n            return (true, a % b);\n        }\n    }\n\n    function add(uint256 a, uint256 b) internal pure returns (uint256) {\n        return a + b;\n    }\n\n    function sub(uint256 a, uint256 b) internal pure returns (uint256) {\n        return a - b;\n    }\n\n    function mul(uint256 a, uint256 b) internal pure returns (uint256) {\n        return a * b;\n    }\n\n    function div(uint256 a, uint256 b) internal pure returns (uint256) {\n        return a / b;\n    }\n\n    function mod(uint256 a, uint256 b) internal pure returns (uint256) {\n        return a % b;\n    }\n\n    function sub(uint256 a, uint256 b, string memory errorMessage) internal pure returns (uint256) {\n        unchecked {\n            require(b <= a, errorMessage);\n            return a - b;\n        }\n    }\n\n    function div(uint256 a, uint256 b, string memory errorMessage) internal pure returns (uint256) {\n        unchecked {\n            require(b > 0, errorMessage);\n            return a / b;\n        }\n    }\n\n    function mod(uint256 a, uint256 b, string memory errorMessage) internal pure returns (uint256) {\n        unchecked {\n            require(b > 0, errorMessage);\n            return a % b;\n        }\n    }\n}\n\ninterface IBEP20 {\n    function totalSupply() external view returns (uint256);\n    function decimals() external view returns (uint8);\n    function symbol() external view returns (string memory);\n    function name() external view returns (string memory);\n    function getOwner() external view returns (address);\n    function balanceOf(address account) external view returns (uint256);\n    function transfer(address recipient, uint256 amount) external returns (bool);\n    function allowance(address _owner, address spender) external view returns (uint256);\n    function approve(address spender, uint256 amount) external returns (bool);\n    function transferFrom(address sender, address recipient, uint256 amount) external returns (bool);\n    event Transfer(address indexed from, address indexed to, uint256 value);\n    event Approval(address indexed owner, address indexed spender, uint256 value);\n}\n\nabstract contract Auth {\n    address internal owner;\n    mapping (address => bool) internal authorizations;\n\n    constructor(address _owner) {\n        owner = _owner;\n        authorizations[_owner] = true;\n    }\n\n    /**\n     * Function modifier to require caller to be contract owner\n     */\n    modifier onlyOwner() {\n        require(isOwner(msg.sender), \"!OWNER\"); _;\n    }\n\n    /**\n     * Function modifier to require caller to be authorized\n     */\n    modifier authorized() {\n        require(isAuthorized(msg.sender), \"!AUTHORIZED\"); _;\n    }\n\n    /**\n     * Authorize address. Owner only\n     */\n    function authorize(address adr) public onlyOwner {\n        authorizations[adr] = true;\n    }\n\n    /**\n     * Remove address' authorization. Owner only\n     */\n    function unauthorize(address adr) public onlyOwner {\n        authorizations[adr] = false;\n    }\n\n    /**\n     * Check if address is owner\n     */\n    function isOwner(address account) public view returns (bool) {\n        return account == owner;\n    }\n\n    /**\n     * Return address' authorization status\n     */\n    function isAuthorized(address adr) public view returns (bool) {\n        return authorizations[adr];\n    }\n\n    /**\n     * Transfer ownership to new address. Caller must be owner. Leaves old owner authorized\n     */\n    function transferOwnership(address payable adr) public onlyOwner {\n        owner = adr;\n        authorizations[adr] = true;\n        emit OwnershipTransferred(adr);\n    }\n\n    event OwnershipTransferred(address owner);\n}\n\ninterface IDEXFactory {\n    function createPair(address tokenA, address tokenB) external returns (address pair);\n}\n\ninterface IDEXRouter {\n    function factory() external pure returns (address);\n    function WETH() external pure returns (address);\n\n    function addLiquidity(\n        address tokenA,\n        address tokenB,\n        uint amountADesired,\n        uint amountBDesired,\n        uint amountAMin,\n        uint amountBMin,\n        address to,\n        uint deadline\n    ) external returns (uint amountA, uint amountB, uint liquidity);\n\n    function addLiquidityETH(\n        address token,\n        uint amountTokenDesired,\n        uint amountTokenMin,\n        uint amountETHMin,\n        address to,\n        uint deadline\n    ) external payable returns (uint amountToken, uint amountETH, uint liquidity);\n\n    function swapExactTokensForTokensSupportingFeeOnTransferTokens(\n        uint amountIn,\n        uint amountOutMin,\n        address[] calldata path,\n        address to,\n        uint deadline\n    ) external;\n\n    function swapExactETHForTokensSupportingFeeOnTransferTokens(\n        uint amountOutMin,\n        address[] calldata path,\n        address to,\n        uint deadline\n    ) external payable;\n\n    function swapExactTokensForETHSupportingFeeOnTransferTokens(\n        uint amountIn,\n        uint amountOutMin,\n        address[] calldata path,\n        address to,\n        uint deadline\n    ) external;\n}\n\ninterface IDividendDistributor {\n    function setDistributionCriteria(uint256 _minPeriod, uint256 _minDistribution) external;\n    function setShare(address shareholder, uint256 amount) external;\n    function deposit() external payable;\n    function process(uint256 gas) external;\n}\n\ncontract DividendDistributor is IDividendDistributor {\n    using SafeMath for uint256;\n\n    address _token;\n\n    struct Share {\n        uint256 amount;\n        uint256 totalExcluded;// excluded dividend\n        uint256 totalRealised;\n    }\n\n    IBEP20 BUSD = IBEP20(0xe9e7CEA3DedcA5984780Bafc599bD69ADd087D56);\n    address WBNB = 0xbb4CdB9CBd36B01bD1cBaEBF2De08d9173bc095c;\n    IDEXRouter router;\n\n    address[] shareholders;\n    mapping (address => uint256) shareholderIndexes;\n    mapping (address => uint256) shareholderClaims;\n\n    mapping (address => Share) public shares;\n\n    uint256 public totalShares;\n    uint256 public totalDividends;\n    uint256 public totalDistributed;// to be shown in UI\n    uint256 public dividendsPerShare;\n    uint256 public dividendsPerShareAccuracyFactor = 10 ** 36;\n\n    uint256 public minPeriod = 1 hours;\n    uint256 public minDistribution = 1 * (10 ** 18);\n\n    uint256 currentIndex;\n\n    bool initialized;\n    modifier initialization() {\n        require(!initialized);\n        _;\n        initialized = true;\n    }\n\n    modifier onlyToken() {\n        require(msg.sender == _token); _;\n    }\n\n    constructor (address _router) {\n        router = _router != address(0)\n        ? IDEXRouter(_router)\n        : IDEXRouter(0x10ED43C718714eb63d5aA57B78B54704E256024E);\n        _token = msg.sender;\n    }\n\n    function setDistributionCriteria(uint256 _minPeriod, uint256 _minDistribution) external override onlyToken {\n        minPeriod = _minPeriod;\n        minDistribution = _minDistribution;\n    }\n\n    function setShare(address shareholder, uint256 amount) external override onlyToken {\n        if(shares[shareholder].amount > 0){\n            distributeDividend(shareholder);\n        }\n\n        if(amount > 0 && shares[shareholder].amount == 0){\n            addShareholder(shareholder);\n        }else if(amount == 0 && shares[shareholder].amount > 0){\n            removeShareholder(shareholder);\n        }\n\n        totalShares = totalShares.sub(shares[shareholder].amount).add(amount);\n        shares[shareholder].amount = amount;\n        shares[shareholder].totalExcluded = getCumulativeDividends(shares[shareholder].amount);\n    }\n\n    function deposit() external payable override onlyToken {\n        uint256 balanceBefore = BUSD.balanceOf(address(this));\n\n        address[] memory path = new address[](2);\n        path[0] = WBNB;\n        path[1] = address(BUSD);\n\n        router.swapExactETHForTokensSupportingFeeOnTransferTokens{value: msg.value}(\n            0,\n            path,\n            address(this),\n            block.timestamp\n        );\n\n        uint256 amount = BUSD.balanceOf(address(this)).sub(balanceBefore);\n\n        totalDividends = totalDividends.add(amount);\n        dividendsPerShare = dividendsPerShare.add(dividendsPerShareAccuracyFactor.mul(amount).div(totalShares));\n    }\n\n    function process(uint256 gas) external override onlyToken {\n        uint256 shareholderCount = shareholders.length;\n\n        if(shareholderCount == 0) { return; }\n\n        uint256 gasUsed = 0;\n        uint256 gasLeft = gasleft();\n\n        uint256 iterations = 0;\n\n        while(gasUsed < gas && iterations < shareholderCount) {\n            if(currentIndex >= shareholderCount){\n                currentIndex = 0;\n            }\n\n            if(shouldDistribute(shareholders[currentIndex])){\n                distributeDividend(shareholders[currentIndex]);\n            }\n\n            gasUsed = gasUsed.add(gasLeft.sub(gasleft()));\n            gasLeft = gasleft();\n            currentIndex++;\n            iterations++;\n        }\n    }\n\n    function shouldDistribute(address shareholder) internal view returns (bool) {\n        return shareholderClaims[shareholder] + minPeriod < block.timestamp\n        && getUnpaidEarnings(shareholder) > minDistribution;\n    }\n\n    function distributeDividend(address shareholder) internal {\n        if(shares[shareholder].amount == 0){ return; }\n\n        uint256 amount = getUnpaidEarnings(shareholder);\n        if(amount > 0){\n            totalDistributed = totalDistributed.add(amount);\n            BUSD.transfer(shareholder, amount);\n            shareholderClaims[shareholder] = block.timestamp;\n            shares[shareholder].totalRealised = shares[shareholder].totalRealised.add(amount);\n            shares[shareholder].totalExcluded = getCumulativeDividends(shares[shareholder].amount);\n        }\n    }\n\n    function claimDividend() external {\n        distributeDividend(msg.sender);\n    }\n    /*\n    returns the  unpaid earnings\n    */\n    function getUnpaidEarnings(address shareholder) public view returns (uint256) {\n        if(shares[shareholder].amount == 0){ return 0; }\n\n        uint256 shareholderTotalDividends = getCumulativeDividends(shares[shareholder].amount);\n        uint256 shareholderTotalExcluded = shares[shareholder].totalExcluded;\n\n        if(shareholderTotalDividends <= shareholderTotalExcluded){ return 0; }\n\n        return shareholderTotalDividends.sub(shareholderTotalExcluded);\n    }\n\n    function getCumulativeDividends(uint256 share) internal view returns (uint256) {\n        return share.mul(dividendsPerShare).div(dividendsPerShareAccuracyFactor);\n    }\n\n    function addShareholder(address shareholder) internal {\n        shareholderIndexes[shareholder] = shareholders.length;\n        shareholders.push(shareholder);\n    }\n\n    function removeShareholder(address shareholder) internal {\n        shareholders[shareholderIndexes[shareholder]] = shareholders[shareholders.length-1];\n        shareholderIndexes[shareholders[shareholders.length-1]] = shareholderIndexes[shareholder];\n        shareholders.pop();\n    }\n}\n\ncontract SantaCoin is IBEP20, Auth {\n    using SafeMath for uint256;\n\n    uint256 public constant MASK = type(uint128).max;\n    address BUSD = 0xe9e7CEA3DedcA5984780Bafc599bD69ADd087D56;\n    address public WBNB = 0xbb4CdB9CBd36B01bD1cBaEBF2De08d9173bc095c;\n    address DEAD = 0x000000000000000000000000000000000000dEaD;\n    address ZERO = 0x0000000000000000000000000000000000000000;\n    address DEAD_NON_CHECKSUM = 0x000000000000000000000000000000000000dEaD;\n\n    string constant _name = \"Santa Coin\";\n    string constant _symbol = \"Santa\";\n    uint8 constant _decimals = 9;\n\n    uint256 _totalSupply = 1_000_000_000_000_000 * (10 ** _decimals);\n    uint256 public _maxTxAmount = _totalSupply.div(400); // 0.25%\n\n    mapping (address => uint256) _balances;\n    mapping (address => mapping (address => uint256)) _allowances;\n\n    mapping (address => bool) isFeeExempt;\n    mapping (address => bool) isTxLimitExempt;\n    mapping (address => bool) isDividendExempt;\n\n    uint256 liquidityFee = 200;\n    uint256 buybackFee = 300;\n    uint256 reflectionFee = 800;\n    uint256 marketingFee = 100;\n    uint256 totalFee = 1400;\n    uint256 feeDenominator = 10000;\n\n    address public autoLiquidityReceiver;\n    address public marketingFeeReceiver=0x27F1D191adf620B78D69bb574C360FB0529Fc004;\n\n    uint256 targetLiquidity = 25;\n    uint256 targetLiquidityDenominator = 100;\n\n    IDEXRouter public router;\n    address public pair;\n\n    uint256 public launchedAt;\n    uint256 public launchedAtTimestamp;\n\n    uint256 buybackMultiplierNumerator = 200;\n    uint256 buybackMultiplierDenominator = 100;\n    uint256 buybackMultiplierTriggeredAt;\n    uint256 buybackMultiplierLength = 30 minutes;\n\n    bool public autoBuybackEnabled = false;\n    mapping (address => bool) buyBacker;\n    uint256 autoBuybackCap;\n    uint256 autoBuybackAccumulator;\n    uint256 autoBuybackAmount;\n    uint256 autoBuybackBlockPeriod;\n    uint256 autoBuybackBlockLast;\n\n    DividendDistributor distributor;\n    address public distributorAddress;\n\n    uint256 distributorGas = 500000;\n\n    bool public swapEnabled = true;\n    uint256 public swapThreshold = _totalSupply / 2000; // 0.005%\n    bool inSwap;\n    modifier swapping() { inSwap = true; _; inSwap = false; }\n\n    constructor (\n        // address _dexRouter, address _marketingAddress, address _wbnb\n    ) Auth(msg.sender) {\n        // router = IDEXRouter(_dexRouter);\n        // WBNB=_wbnb;\n        // pair = IDEXFactory(router.factory()).createPair(_wbnb, address(this));\n        // _allowances[address(this)][address(router)] = _totalSupply;\n        // WBNB = router.WETH();\n        // distributor = new DividendDistributor(_dexRouter);\n        // distributorAddress = address(distributor);\n\n        isFeeExempt[msg.sender] = true;\n        isTxLimitExempt[msg.sender] = true;\n        isDividendExempt[pair] = true;\n        isDividendExempt[address(this)] = true;\n        isDividendExempt[DEAD] = true;\n        buyBacker[msg.sender] = true;\n\n        autoLiquidityReceiver = msg.sender;\n        // marketingFeeReceiver = _marketingAddress;\n\n        // approve(_dexRouter, _totalSupply);\n        // approve(address(pair), _totalSupply);\n        _balances[msg.sender] = _totalSupply;\n        emit Transfer(address(0), msg.sender, _totalSupply);\n    }\n    \n\n    receive() external payable { }\n\n    function totalSupply() external view override returns (uint256) { return _totalSupply; }\n    function decimals() external pure override returns (uint8) { return _decimals; }\n    function symbol() external pure override returns (string memory) { return _symbol; }\n    function name() external pure override returns (string memory) { return _name; }\n    function getOwner() external view override returns (address) { return owner; }\n    modifier onlyBuybacker() { require(buyBacker[msg.sender] == true, \"\"); _; }\n    function balanceOf(address account) public view override returns (uint256) { return _balances[account]; }\n    function allowance(address holder, address spender) external view override returns (uint256) { return _allowances[holder][spender]; }\n\n    function approve(address spender, uint256 amount) public override returns (bool) {\n        _allowances[msg.sender][spender] = amount;\n        emit Approval(msg.sender, spender, amount);\n        return true;\n    }\n\n    function approveMax(address spender) external returns (bool) {\n        return approve(spender, _totalSupply);\n    }\n\n    function transfer(address recipient, uint256 amount) external override returns (bool) {\n        return _transferFrom(msg.sender, recipient, amount);\n    }\n\n    function transferFrom(address sender, address recipient, uint256 amount) external override returns (bool) {\n        if(_allowances[sender][msg.sender] != _totalSupply){\n            _allowances[sender][msg.sender] = _allowances[sender][msg.sender].sub(amount, \"Insufficient Allowance\");\n        }\n\n        return _transferFrom(sender, recipient, amount);\n    }\n\n    function _transferFrom(address sender, address recipient, uint256 amount) internal returns (bool) {\n        if(inSwap){ return _basicTransfer(sender, recipient, amount); }\n\n        checkTxLimit(sender, amount);\n        //\n        if(shouldSwapBack()){ swapBack(); }\n        if(shouldAutoBuyback()){ triggerAutoBuyback(); }\n\n        //        if(!launched() && recipient == pair){ require(_balances[sender] > 0); launch(); }\n\n        _balances[sender] = _balances[sender].sub(amount, \"Insufficient Balance\");\n\n        uint256 amountReceived = shouldTakeFee(sender) ? takeFee(sender, recipient, amount) : amount;\n\n        _balances[recipient] = _balances[recipient].add(amountReceived);\n\n        // if(!isDividendExempt[sender]){ try distributor.setShare(sender, _balances[sender]) {} catch {} }\n        // if(!isDividendExempt[recipient]){ try distributor.setShare(recipient, _balances[recipient]) {} catch {} }\n\n        // try distributor.process(distributorGas) {} catch {}\n\n        emit Transfer(sender, recipient, amountReceived);\n        return true;\n    }\n\n    function _basicTransfer(address sender, address recipient, uint256 amount) internal returns (bool) {\n        _balances[sender] = _balances[sender].sub(amount, \"Insufficient Balance\");\n        _balances[recipient] = _balances[recipient].add(amount);\n        //emit Transfer(sender, recipient, amount);\n        return true;\n    }\n\n\n    function checkTxLimit(address sender, uint256 amount) internal view {\n        require(amount <= _maxTxAmount || isTxLimitExempt[sender], \"TX Limit Exceeded\");\n    }\n\n    function shouldTakeFee(address sender) internal view returns (bool) {\n        return !isFeeExempt[sender];\n    }\n\n    function getTotalFee(bool selling) public view returns (uint256) {\n        if(launchedAt + 1 >= block.number){ return feeDenominator.sub(1); }\n        if(selling){ return getMultipliedFee(); }\n        return totalFee;\n    }\n\n    function getMultipliedFee() public view returns (uint256) {\n        if (launchedAtTimestamp + 1 days > block.timestamp) {\n            return totalFee.mul(18000).div(feeDenominator);\n        } else if (buybackMultiplierTriggeredAt.add(buybackMultiplierLength) > block.timestamp) {\n            uint256 remainingTime = buybackMultiplierTriggeredAt.add(buybackMultiplierLength).sub(block.timestamp);\n            uint256 feeIncrease = totalFee.mul(buybackMultiplierNumerator).div(buybackMultiplierDenominator).sub(totalFee);\n            return totalFee.add(feeIncrease.mul(remainingTime).div(buybackMultiplierLength));\n        }\n        return totalFee;\n    }\n\n    function takeFee(address sender, address receiver, uint256 amount) internal returns (uint256) {\n        uint256 feeAmount = amount.mul(getTotalFee(receiver == pair)).div(feeDenominator);\n\n        _balances[address(this)] = _balances[address(this)].add(feeAmount);\n        emit Transfer(sender, address(this), feeAmount);\n\n        return amount.sub(feeAmount);\n    }\n\n    function shouldSwapBack() internal view returns (bool) {\n        return msg.sender != pair\n        && !inSwap\n        && swapEnabled\n        && _balances[address(this)] >= swapThreshold;\n    }\n\n    function swapBack() internal swapping {\n        uint256 dynamicLiquidityFee = isOverLiquified(targetLiquidity, targetLiquidityDenominator) ? 0 : liquidityFee;\n        uint256 amountToLiquify = swapThreshold.mul(dynamicLiquidityFee).div(totalFee).div(2);\n        uint256 amountToSwap = swapThreshold.sub(amountToLiquify);\n\n        address[] memory path = new address[](2);\n        path[0] = address(this);\n        path[1] = WBNB;\n        uint256 balanceBefore = address(this).balance;\n\n        router.swapExactTokensForETHSupportingFeeOnTransferTokens(\n            amountToSwap,\n            0,\n            path,\n            address(this),\n            block.timestamp\n        );\n\n        uint256 amountBNB = address(this).balance.sub(balanceBefore);\n\n        uint256 totalBNBFee = totalFee.sub(dynamicLiquidityFee.div(2));\n\n        uint256 amountBNBLiquidity = amountBNB.mul(dynamicLiquidityFee).div(totalBNBFee).div(2);\n        uint256 amountBNBReflection = amountBNB.mul(reflectionFee).div(totalBNBFee);\n        uint256 amountBNBMarketing = amountBNB.mul(marketingFee).div(totalBNBFee);\n\n        try distributor.deposit{value: amountBNBReflection}() {} catch {}\n        payable(marketingFeeReceiver).transfer(amountBNBMarketing);\n            \n        \n\n        if(amountToLiquify > 0){\n            router.addLiquidityETH{value: amountBNBLiquidity}(\n                address(this),\n                amountToLiquify,\n                0,\n                0,\n                autoLiquidityReceiver,\n                block.timestamp\n            );\n            emit AutoLiquify(amountBNBLiquidity, amountToLiquify);\n        }\n    }\n\n    function shouldAutoBuyback() internal view returns (bool) {\n        return msg.sender != pair\n        && !inSwap\n        && autoBuybackEnabled\n        && autoBuybackBlockLast + autoBuybackBlockPeriod <= block.number // After N blocks from last buyback\n        && address(this).balance >= autoBuybackAmount;\n    }\n\n    function triggerZeusBuyback(uint256 amount, bool triggerBuybackMultiplier) external authorized {\n        buyTokens(amount, DEAD);\n        if(triggerBuybackMultiplier){\n            buybackMultiplierTriggeredAt = block.timestamp;\n            emit BuybackMultiplierActive(buybackMultiplierLength);\n        }\n    }\n\n    function clearBuybackMultiplier() external authorized {\n        buybackMultiplierTriggeredAt = 0;\n    }\n\n    function triggerAutoBuyback() internal {\n        buyTokens(autoBuybackAmount, DEAD);\n        autoBuybackBlockLast = block.number;\n        autoBuybackAccumulator = autoBuybackAccumulator.add(autoBuybackAmount);\n        if(autoBuybackAccumulator > autoBuybackCap){ autoBuybackEnabled = false; }\n    }\n\n    function buyTokens(uint256 amount, address to) internal swapping {\n        address[] memory path = new address[](2);\n        path[0] = WBNB;\n        path[1] = address(this);\n\n        router.swapExactETHForTokensSupportingFeeOnTransferTokens{value: amount}(\n            0,\n            path,\n            to,\n            block.timestamp\n        );\n    }\n\n    function setAutoBuybackSettings(bool _enabled, uint256 _cap, uint256 _amount, uint256 _period) external authorized {\n        autoBuybackEnabled = _enabled;\n        autoBuybackCap = _cap;\n        autoBuybackAccumulator = 0;\n        autoBuybackAmount = _amount;\n        autoBuybackBlockPeriod = _period;\n        autoBuybackBlockLast = block.number;\n    }\n\n    function setBuybackMultiplierSettings(uint256 numerator, uint256 denominator, uint256 length) external authorized {\n        require(numerator / denominator <= 2 && numerator > denominator);\n        buybackMultiplierNumerator = numerator;\n        buybackMultiplierDenominator = denominator;\n        buybackMultiplierLength = length;\n    }\n\n    function launched() internal view returns (bool) {\n        return launchedAt != 0;\n    }\n\n    function launch() public authorized {\n        require(launchedAt == 0, \"Already launched boi\");\n        launchedAt = block.number;\n        launchedAtTimestamp = block.timestamp;\n    }\n\n    function setTxLimit(uint256 amount) external authorized {\n        require(amount >= _totalSupply / 1000);\n        _maxTxAmount = amount;\n    }\n\n    function setIsDividendExempt(address holder, bool exempt) external authorized {\n        require(holder != address(this) && holder != pair);\n        isDividendExempt[holder] = exempt;\n        if(exempt){\n            distributor.setShare(holder, 0);\n        }else{\n            distributor.setShare(holder, _balances[holder]);\n        }\n    }\n\n    function setIsFeeExempt(address holder, bool exempt) external authorized {\n        isFeeExempt[holder] = exempt;\n    }\n\n    function setIsTxLimitExempt(address holder, bool exempt) external authorized {\n        isTxLimitExempt[holder] = exempt;\n    }\n\n    function setFees(uint256 _liquidityFee, uint256 _buybackFee, uint256 _reflectionFee, uint256 _marketingFee, uint256 _feeDenominator) external authorized {\n        liquidityFee = _liquidityFee;\n        buybackFee = _buybackFee;\n        reflectionFee = _reflectionFee;\n        marketingFee = _marketingFee;\n        totalFee = _liquidityFee.add(_buybackFee).add(_reflectionFee).add(_marketingFee);\n        feeDenominator = _feeDenominator;\n        require(totalFee < feeDenominator/4);\n    }\n\n    function setFeeReceivers(address _autoLiquidityReceiver, address _marketingFeeReceiver) external authorized {\n        autoLiquidityReceiver = _autoLiquidityReceiver;\n        marketingFeeReceiver = _marketingFeeReceiver;\n    }\n\n    function setSwapBackSettings(bool _enabled, uint256 _amount) external authorized {\n        swapEnabled = _enabled;\n        swapThreshold = _amount;\n    }\n\n    function setTargetLiquidity(uint256 _target, uint256 _denominator) external authorized {\n        targetLiquidity = _target;\n        targetLiquidityDenominator = _denominator;\n    }\n\n    function setDistributionCriteria(uint256 _minPeriod, uint256 _minDistribution) external authorized {\n        distributor.setDistributionCriteria(_minPeriod, _minDistribution);\n    }\n\n    function setDistributorSettings(uint256 gas) external authorized {\n        require(gas < 750000);\n        distributorGas = gas;\n    }\n\n    function getCirculatingSupply() public view returns (uint256) {\n        return _totalSupply.sub(balanceOf(DEAD)).sub(balanceOf(ZERO));\n    }\n\n    function getLiquidityBacking(uint256 accuracy) public view returns (uint256) {\n        return accuracy.mul(balanceOf(pair).mul(2)).div(getCirculatingSupply());\n    }\n\n    function isOverLiquified(uint256 target, uint256 accuracy) public view returns (bool) {\n        return getLiquidityBacking(accuracy) > target;\n    }\n\n    event AutoLiquify(uint256 amountBNB, uint256 amountBOG);\n    event BuybackMultiplierActive(uint256 duration);\n}",
  "sourcePath": "/Users/maulik/Desktop/Solidity/cryptocars/contract/contracts/SantaCoin.sol",
  "compiler": {
    "name": "solc",
    "version": "0.8.13+commit.abaa5c0e.Emscripten.clang"
  },
  "schemaVersion": "3.4.5",
  "updatedAt": "2022-03-25T05:52:53.823Z",
  "networkType": "ethereum",
  "devdoc": {
    "kind": "dev",
    "methods": {},
    "version": 1
  },
  "userdoc": {
    "kind": "user",
    "methods": {
      "authorize(address)": {
        "notice": "Authorize address. Owner only"
      },
      "isAuthorized(address)": {
        "notice": "Return address' authorization status"
      },
      "isOwner(address)": {
        "notice": "Check if address is owner"
      },
      "transferOwnership(address)": {
        "notice": "Transfer ownership to new address. Caller must be owner. Leaves old owner authorized"
      },
      "unauthorize(address)": {
        "notice": "Remove address' authorization. Owner only"
      }
    },
    "version": 1
  }
}